{
  "contractName": "Todos",
  "abi": [
    {
      "anonymous": false,
      "inputs": [
        {
          "indexed": false,
          "internalType": "address",
          "name": "from",
          "type": "address"
        },
        {
          "components": [
            {
              "internalType": "uint256",
              "name": "id",
              "type": "uint256"
            },
            {
              "internalType": "address",
              "name": "owner",
              "type": "address"
            },
            {
              "internalType": "string",
              "name": "content",
              "type": "string"
            },
            {
              "internalType": "bool",
              "name": "completed",
              "type": "bool"
            },
            {
              "internalType": "string",
              "name": "priority",
              "type": "string"
            }
          ],
          "indexed": false,
          "internalType": "struct Todos.Todo",
          "name": "new_todo",
          "type": "tuple"
        }
      ],
      "name": "AddTodo",
      "type": "event"
    },
    {
      "anonymous": false,
      "inputs": [
        {
          "indexed": false,
          "internalType": "address",
          "name": "from",
          "type": "address"
        },
        {
          "indexed": false,
          "internalType": "uint256",
          "name": "id",
          "type": "uint256"
        }
      ],
      "name": "DeleteTodo",
      "type": "event"
    },
    {
      "anonymous": false,
      "inputs": [
        {
          "indexed": false,
          "internalType": "address",
          "name": "from",
          "type": "address"
        },
        {
          "indexed": false,
          "internalType": "uint256",
          "name": "id",
          "type": "uint256"
        },
        {
          "components": [
            {
              "internalType": "uint256",
              "name": "id",
              "type": "uint256"
            },
            {
              "internalType": "address",
              "name": "owner",
              "type": "address"
            },
            {
              "internalType": "string",
              "name": "content",
              "type": "string"
            },
            {
              "internalType": "bool",
              "name": "completed",
              "type": "bool"
            },
            {
              "internalType": "string",
              "name": "priority",
              "type": "string"
            }
          ],
          "indexed": false,
          "internalType": "struct Todos.Todo",
          "name": "new_todo",
          "type": "tuple"
        }
      ],
      "name": "UpdateTodo",
      "type": "event"
    },
    {
      "anonymous": false,
      "inputs": [
        {
          "indexed": false,
          "internalType": "address",
          "name": "from",
          "type": "address"
        },
        {
          "indexed": false,
          "internalType": "string",
          "name": "username",
          "type": "string"
        }
      ],
      "name": "UpdateUsername",
      "type": "event"
    },
    {
      "constant": true,
      "inputs": [
        {
          "internalType": "uint256",
          "name": "",
          "type": "uint256"
        }
      ],
      "name": "todos",
      "outputs": [
        {
          "internalType": "uint256",
          "name": "id",
          "type": "uint256"
        },
        {
          "internalType": "address",
          "name": "owner",
          "type": "address"
        },
        {
          "internalType": "string",
          "name": "content",
          "type": "string"
        },
        {
          "internalType": "bool",
          "name": "completed",
          "type": "bool"
        },
        {
          "internalType": "string",
          "name": "priority",
          "type": "string"
        }
      ],
      "payable": false,
      "stateMutability": "view",
      "type": "function"
    },
    {
      "constant": true,
      "inputs": [
        {
          "internalType": "address",
          "name": "",
          "type": "address"
        }
      ],
      "name": "usernames",
      "outputs": [
        {
          "internalType": "string",
          "name": "",
          "type": "string"
        }
      ],
      "payable": false,
      "stateMutability": "view",
      "type": "function"
    },
    {
      "constant": false,
      "inputs": [
        {
          "components": [
            {
              "internalType": "uint256",
              "name": "id",
              "type": "uint256"
            },
            {
              "internalType": "address",
              "name": "owner",
              "type": "address"
            },
            {
              "internalType": "string",
              "name": "content",
              "type": "string"
            },
            {
              "internalType": "bool",
              "name": "completed",
              "type": "bool"
            },
            {
              "internalType": "string",
              "name": "priority",
              "type": "string"
            }
          ],
          "internalType": "struct Todos.Todo",
          "name": "new_todo",
          "type": "tuple"
        }
      ],
      "name": "addTodo",
      "outputs": [],
      "payable": false,
      "stateMutability": "nonpayable",
      "type": "function"
    },
    {
      "constant": false,
      "inputs": [
        {
          "internalType": "uint256",
          "name": "id",
          "type": "uint256"
        },
        {
          "components": [
            {
              "internalType": "uint256",
              "name": "id",
              "type": "uint256"
            },
            {
              "internalType": "address",
              "name": "owner",
              "type": "address"
            },
            {
              "internalType": "string",
              "name": "content",
              "type": "string"
            },
            {
              "internalType": "bool",
              "name": "completed",
              "type": "bool"
            },
            {
              "internalType": "string",
              "name": "priority",
              "type": "string"
            }
          ],
          "internalType": "struct Todos.Todo",
          "name": "new_todo",
          "type": "tuple"
        }
      ],
      "name": "updateTodo",
      "outputs": [
        {
          "internalType": "bool",
          "name": "",
          "type": "bool"
        }
      ],
      "payable": false,
      "stateMutability": "nonpayable",
      "type": "function"
    },
    {
      "constant": false,
      "inputs": [
        {
          "internalType": "uint256",
          "name": "id",
          "type": "uint256"
        }
      ],
      "name": "deleteTodo",
      "outputs": [
        {
          "internalType": "bool",
          "name": "",
          "type": "bool"
        }
      ],
      "payable": false,
      "stateMutability": "nonpayable",
      "type": "function"
    },
    {
      "constant": false,
      "inputs": [
        {
          "internalType": "string",
          "name": "username",
          "type": "string"
        }
      ],
      "name": "updateUsername",
      "outputs": [],
      "payable": false,
      "stateMutability": "nonpayable",
      "type": "function"
    },
    {
      "constant": true,
      "inputs": [
        {
          "internalType": "address",
          "name": "owner",
          "type": "address"
        }
      ],
      "name": "getUsername",
      "outputs": [
        {
          "internalType": "string",
          "name": "",
          "type": "string"
        }
      ],
      "payable": false,
      "stateMutability": "view",
      "type": "function"
    },
    {
      "constant": true,
      "inputs": [],
      "name": "getTodos",
      "outputs": [
        {
          "components": [
            {
              "internalType": "uint256",
              "name": "id",
              "type": "uint256"
            },
            {
              "internalType": "address",
              "name": "owner",
              "type": "address"
            },
            {
              "internalType": "string",
              "name": "content",
              "type": "string"
            },
            {
              "internalType": "bool",
              "name": "completed",
              "type": "bool"
            },
            {
              "internalType": "string",
              "name": "priority",
              "type": "string"
            }
          ],
          "internalType": "struct Todos.Todo[]",
          "name": "",
          "type": "tuple[]"
        }
      ],
      "payable": false,
      "stateMutability": "view",
      "type": "function"
    }
  ],
  "bytecode": "0x608060405234801561001057600080fd5b5061194f806100206000396000f3fe608060405234801561001057600080fd5b50600436106100885760003560e01c8063c96cea701161005b578063c96cea701461012b578063ce43c03214610147578063ee91877c14610177578063f67613ed146101a757610088565b80636e3c67381461008d57806383cb7067146100bd578063bc8bc2b4146100d9578063c33926cb1461010d575b600080fd5b6100a760048036036100a29190810190611243565b6101d7565b6040516100b49190611640565b60405180910390f35b6100d760048036036100d29190810190611202565b610447565b005b6100f360048036036100ee9190810190611243565b6105c8565b60405161010495949392919061169f565b60405180910390f35b610115610768565b604051610122919061161e565b60405180910390f35b610145600480360361014091908101906111c1565b610986565b005b610161600480360361015c9190810190611198565b610a16565b60405161016e919061167d565b60405180910390f35b610191600480360361018c9190810190611198565b610af7565b60405161019e919061165b565b60405180910390f35b6101c160048036036101bc919081019061126c565b610ba7565b6040516101ce9190611640565b60405180910390f35b600080600090505b60018054905081101561043c5782600182815481106101fa57fe5b906000526020600020906005020160000154141561042f5760018080549050111561034d576001808080549050038154811061023257fe5b90600052602060002090600502016001828154811061024d57fe5b9060005260206000209060050201600082015481600001556001820160009054906101000a900473ffffffffffffffffffffffffffffffffffffffff168160010160006101000a81548173ffffffffffffffffffffffffffffffffffffffff021916908373ffffffffffffffffffffffffffffffffffffffff160217905550600282018160020190805460018160011615610100020316600290046102f3929190610d0a565b506003820160009054906101000a900460ff168160030160006101000a81548160ff02191690831515021790555060048201816004019080546001816001161561010002031660029004610348929190610d0a565b509050505b6001808080549050038154811061036057fe5b90600052602060002090600502016000808201600090556001820160006101000a81549073ffffffffffffffffffffffffffffffffffffffff02191690556002820160006103ae9190610d91565b6003820160006101000a81549060ff02191690556004820160006103d29190610d91565b5050600180818180549050039150816103eb9190610dd9565b507fbc4b451b91814c3f11882fd01fc6ae10bcb21d9e1df949b4316d9e2ad647eddc338460405161041d9291906115b7565b60405180910390a16001915050610442565b80806001019150506101df565b50600090505b919050565b6001600080828254019250508190555061045f610e0b565b6040518060a001604052806000548152602001836020015173ffffffffffffffffffffffffffffffffffffffff1681526020018360400151815260200160001515815260200183608001518152509050600181908060018154018082558091505090600182039060005260206000209060050201600090919290919091506000820151816000015560208201518160010160006101000a81548173ffffffffffffffffffffffffffffffffffffffff021916908373ffffffffffffffffffffffffffffffffffffffff160217905550604082015181600201908051906020019061054a929190610e52565b5060608201518160030160006101000a81548160ff0219169083151502179055506080820151816004019080519060200190610587929190610e52565b505050507ff19fa8cc2c776c512a5b05919ff77f5526e294e1700f4e065d2f847ffb76d38533826040516105bc929190611587565b60405180910390a15050565b600181815481106105d557fe5b90600052602060002090600502016000915090508060000154908060010160009054906101000a900473ffffffffffffffffffffffffffffffffffffffff1690806002018054600181600116156101000203166002900480601f0160208091040260200160405190810160405280929190818152602001828054600181600116156101000203166002900480156106ad5780601f10610682576101008083540402835291602001916106ad565b820191906000526020600020905b81548152906001019060200180831161069057829003601f168201915b5050505050908060030160009054906101000a900460ff1690806004018054600181600116156101000203166002900480601f01602080910402602001604051908101604052809291908181526020018280546001816001161561010002031660029004801561075e5780601f106107335761010080835404028352916020019161075e565b820191906000526020600020905b81548152906001019060200180831161074157829003601f168201915b5050505050905085565b60606001805480602002602001604051908101604052809291908181526020016000905b8282101561097d57838290600052602060002090600502016040518060a0016040529081600082015481526020016001820160009054906101000a900473ffffffffffffffffffffffffffffffffffffffff1673ffffffffffffffffffffffffffffffffffffffff1673ffffffffffffffffffffffffffffffffffffffff168152602001600282018054600181600116156101000203166002900480601f0160208091040260200160405190810160405280929190818152602001828054600181600116156101000203166002900480156108a85780601f1061087d576101008083540402835291602001916108a8565b820191906000526020600020905b81548152906001019060200180831161088b57829003601f168201915b505050505081526020016003820160009054906101000a900460ff16151515158152602001600482018054600181600116156101000203166002900480601f0160208091040260200160405190810160405280929190818152602001828054600181600116156101000203166002900480156109655780601f1061093a57610100808354040283529160200191610965565b820191906000526020600020905b81548152906001019060200180831161094857829003601f168201915b5050505050815250508152602001906001019061078c565b50505050905090565b80600260003373ffffffffffffffffffffffffffffffffffffffff1673ffffffffffffffffffffffffffffffffffffffff16815260200190815260200160002090805190602001906109d9929190610ed2565b507fe847a9a72eaa32e85c6ab96c3c79afb12c662d8f0cedc1d06b7bbcb2bad388903382604051610a0b929190611557565b60405180910390a150565b6060600260008373ffffffffffffffffffffffffffffffffffffffff1673ffffffffffffffffffffffffffffffffffffffff1681526020019081526020016000208054600181600116156101000203166002900480601f016020809104026020016040519081016040528092919081815260200182805460018160011615610100020316600290048015610aeb5780601f10610ac057610100808354040283529160200191610aeb565b820191906000526020600020905b815481529060010190602001808311610ace57829003601f168201915b50505050509050919050565b60026020528060005260406000206000915090508054600181600116156101000203166002900480601f016020809104026020016040519081016040528092919081815260200182805460018160011615610100020316600290048015610b9f5780601f10610b7457610100808354040283529160200191610b9f565b820191906000526020600020905b815481529060010190602001808311610b8257829003601f168201915b505050505081565b600080600090505b600180549050811015610cfe578360018281548110610bca57fe5b9060005260206000209060050201600001541415610cf1578260018281548110610bf057fe5b90600052602060002090600502016000820151816000015560208201518160010160006101000a81548173ffffffffffffffffffffffffffffffffffffffff021916908373ffffffffffffffffffffffffffffffffffffffff1602179055506040820151816002019080519060200190610c6b929190610e52565b5060608201518160030160006101000a81548160ff0219169083151502179055506080820151816004019080519060200190610ca8929190610e52565b509050507ff8db020729d29793a3779cff3e4b8f3f5487188901b941fa0d77c5a916a3fb80338585604051610cdf939291906115e0565b60405180910390a16001915050610d04565b8080600101915050610baf565b50600090505b92915050565b828054600181600116156101000203166002900490600052602060002090601f016020900481019282601f10610d435780548555610d80565b82800160010185558215610d8057600052602060002091601f016020900482015b82811115610d7f578254825591600101919060010190610d64565b5b509050610d8d9190610f52565b5090565b50805460018160011615610100020316600290046000825580601f10610db75750610dd6565b601f016020900490600052602060002090810190610dd59190610f52565b5b50565b815481835581811115610e0657600502816005028360005260206000209182019101610e059190610f77565b5b505050565b6040518060a0016040528060008152602001600073ffffffffffffffffffffffffffffffffffffffff16815260200160608152602001600015158152602001606081525090565b828054600181600116156101000203166002900490600052602060002090601f016020900481019282601f10610e9357805160ff1916838001178555610ec1565b82800160010185558215610ec1579182015b82811115610ec0578251825591602001919060010190610ea5565b5b509050610ece9190610f52565b5090565b828054600181600116156101000203166002900490600052602060002090601f016020900481019282601f10610f1357805160ff1916838001178555610f41565b82800160010185558215610f41579182015b82811115610f40578251825591602001919060010190610f25565b5b509050610f4e9190610f52565b5090565b610f7491905b80821115610f70576000816000905550600101610f58565b5090565b90565b610ff691905b80821115610ff2576000808201600090556001820160006101000a81549073ffffffffffffffffffffffffffffffffffffffff0219169055600282016000610fc59190610d91565b6003820160006101000a81549060ff0219169055600482016000610fe99190610d91565b50600501610f7d565b5090565b90565b600081359050611008816118c7565b92915050565b60008135905061101d816118de565b92915050565b600082601f83011261103457600080fd5b81356110476110428261172d565b611700565b9150808252602083016020830185838301111561106357600080fd5b61106e838284611874565b50505092915050565b600082601f83011261108857600080fd5b813561109b61109682611759565b611700565b915080825260208301602083018583830111156110b757600080fd5b6110c2838284611874565b50505092915050565b600060a082840312156110dd57600080fd5b6110e760a0611700565b905060006110f784828501611183565b600083015250602061110b84828501610ff9565b602083015250604082013567ffffffffffffffff81111561112b57600080fd5b61113784828501611023565b604083015250606061114b8482850161100e565b606083015250608082013567ffffffffffffffff81111561116b57600080fd5b61117784828501611023565b60808301525092915050565b600081359050611192816118f5565b92915050565b6000602082840312156111aa57600080fd5b60006111b884828501610ff9565b91505092915050565b6000602082840312156111d357600080fd5b600082013567ffffffffffffffff8111156111ed57600080fd5b6111f984828501611077565b91505092915050565b60006020828403121561121457600080fd5b600082013567ffffffffffffffff81111561122e57600080fd5b61123a848285016110cb565b91505092915050565b60006020828403121561125557600080fd5b600061126384828501611183565b91505092915050565b6000806040838503121561127f57600080fd5b600061128d85828601611183565b925050602083013567ffffffffffffffff8111156112aa57600080fd5b6112b6858286016110cb565b9150509250929050565b60006112cc83836114bc565b905092915050565b6112dd8161183e565b82525050565b6112ec816117f6565b82525050565b6112fb816117f6565b82525050565b600061130c82611795565b61131681856117c3565b93508360208202850161132885611785565b8060005b85811015611364578484038952815161134585826112c0565b9450611350836117b6565b925060208a0199505060018101905061132c565b50829750879550505050505092915050565b61137f81611808565b82525050565b61138e81611808565b82525050565b600061139f826117ab565b6113a981856117e5565b93506113b9818560208601611883565b6113c2816118b6565b840191505092915050565b60006113d8826117a0565b6113e281856117d4565b93506113f2818560208601611883565b6113fb816118b6565b840191505092915050565b6000611411826117a0565b61141b81856117e5565b935061142b818560208601611883565b611434816118b6565b840191505092915050565b600060a0830160008301516114576000860182611539565b50602083015161146a60208601826112e3565b506040830151848203604086015261148282826113cd565b91505060608301516114976060860182611376565b50608083015184820360808601526114af82826113cd565b9150508091505092915050565b600060a0830160008301516114d46000860182611539565b5060208301516114e760208601826112e3565b50604083015184820360408601526114ff82826113cd565b91505060608301516115146060860182611376565b506080830151848203608086015261152c82826113cd565b9150508091505092915050565b61154281611834565b82525050565b61155181611834565b82525050565b600060408201905061156c60008301856112d4565b818103602083015261157e8184611394565b90509392505050565b600060408201905061159c60008301856112d4565b81810360208301526115ae818461143f565b90509392505050565b60006040820190506115cc60008301856112d4565b6115d96020830184611548565b9392505050565b60006060820190506115f560008301866112d4565b6116026020830185611548565b8181036040830152611614818461143f565b9050949350505050565b600060208201905081810360008301526116388184611301565b905092915050565b60006020820190506116556000830184611385565b92915050565b600060208201905081810360008301526116758184611406565b905092915050565b600060208201905081810360008301526116978184611394565b905092915050565b600060a0820190506116b46000830188611548565b6116c160208301876112f2565b81810360408301526116d38186611406565b90506116e26060830185611385565b81810360808301526116f48184611406565b90509695505050505050565b6000604051905081810181811067ffffffffffffffff8211171561172357600080fd5b8060405250919050565b600067ffffffffffffffff82111561174457600080fd5b601f19601f8301169050602081019050919050565b600067ffffffffffffffff82111561177057600080fd5b601f19601f8301169050602081019050919050565b6000819050602082019050919050565b600081519050919050565b600081519050919050565b600081519050919050565b6000602082019050919050565b600082825260208201905092915050565b600082825260208201905092915050565b600082825260208201905092915050565b600061180182611814565b9050919050565b60008115159050919050565b600073ffffffffffffffffffffffffffffffffffffffff82169050919050565b6000819050919050565b600061184982611850565b9050919050565b600061185b82611862565b9050919050565b600061186d82611814565b9050919050565b82818337600083830152505050565b60005b838110156118a1578082015181840152602081019050611886565b838111156118b0576000848401525b50505050565b6000601f19601f8301169050919050565b6118d0816117f6565b81146118db57600080fd5b50565b6118e781611808565b81146118f257600080fd5b50565b6118fe81611834565b811461190957600080fd5b5056fea365627a7a723158201fa92f736740e766c25d69078a5b613c5c9341a8bc9be97babbfaa44958cc1bc6c6578706572696d656e74616cf564736f6c63430005100040",
  "source": "// SPDX-License-Identifier: MIT\npragma solidity >=0.4.25 <0.7.0;\npragma experimental ABIEncoderV2;\n\ncontract Todos {\n\tuint internal total_todos;\n\n\tstruct Todo {\n\t\tuint id;\n\t\taddress owner;\n\t\tstring content;\n\t\tbool completed; \n\t\tstring priority;\n\t}\n\n\tTodo[] public todos;\n\tmapping (address => string) public usernames;\n\t\n\tevent UpdateUsername(address from, string username);\n\tevent AddTodo(address from, Todo new_todo);\n\tevent UpdateTodo(address from, uint id, Todo new_todo);\n\tevent DeleteTodo(address from, uint id);\n\n\tfunction addTodo(Todo memory new_todo) public { \n\t\ttotal_todos += 1;\n\t\tTodo memory _new_todo = Todo({\n\t\t\tcontent: new_todo.content,\n\t\t\towner: new_todo.owner,\n\t\t\tpriority: new_todo.priority,\n\t\t\tcompleted: false,\n\t\t\tid: total_todos // Increment the id by one more than the current largest id.\n\t\t});\n\n\t\ttodos.push(_new_todo);\n\n\t\temit AddTodo(msg.sender, _new_todo);\n\t}\n\n\tfunction updateTodo(uint id, Todo memory new_todo) public returns (bool) {\n\t\tfor (uint i = 0; i < todos.length; i++) {\n\t\t\tif (todos[i].id == id) {\n\t\t\t\ttodos[i] = new_todo;\n\n\t\t\t\temit UpdateTodo(msg.sender, id, new_todo);\n\t\t\t\treturn true;\n\t\t\t}\n\t\t}\n\n\t\treturn false;\n\t}\n\n\tfunction deleteTodo(uint id) public returns (bool) {\n\t\tfor (uint i = 0; i < todos.length; i++) {\n\t\t\tif (todos[i].id == id) {\n\t\t\t\tif (todos.length > 1) { todos[i] = todos[todos.length-1]; }\n\t\t\t\tdelete todos[todos.length-1];\n\t\t\t\ttodos.length -= 1;\n\n\t\t\t\temit DeleteTodo(msg.sender, id);\n\t\t\t\treturn true;\n\t\t\t}\n\t\t}\n\n\t\treturn false;\n\t}\n\n\tfunction updateUsername(string memory username) public {\n\t\tusernames[msg.sender] = username;\n\t\temit UpdateUsername(msg.sender, username);\n\t}\n\n\tfunction getUsername(address owner) public view returns (string memory) {\n\t\treturn usernames[owner];\n\t}\n\n\tfunction getTodos() public view returns (Todo[] memory) {\n\t\treturn todos;\n\t}\n}\n",
  "sourcePath": "/home/dylan/Desktop/personal/CodingTests/Test1/src/smart_contracts/contracts/Todos.sol",
  "compiler": {
    "name": "solc",
    "version": "0.5.16+commit.9c3226ce.Emscripten.clang"
  },
  "schemaVersion": "3.2.4",
  "updatedAt": "2020-08-30T10:13:10.266Z",
  "networkType": "ethereum",
  "devdoc": {
    "methods": {}
  },
  "userdoc": {
    "methods": {}
  }
}